:020000040000fa
:080000000022040000000000d2
:020000040000fa
:1000080004200000082000000c2000001020000040
:1000180014200000182000001c200000e02100002f
:100028002020000024200000282000002c200000b0
:100038003020000034200000382000003c20000060
:100048004020000044200000482000004c20000010
:100058005020000054200000582000005c200000c0
:100068006020000064200000682000006c20000070
:100078007020000074200000782000007c20000020
:100088008020000084200000882000008c200000d0
:100098009020000094200000982000009c20000080
:1000a800a0200000a4200000a8200000ac20000030
:1000b800b0200000b4200000b8200000bc200000e0
:1000c800c0200000c4200000c8200000cc20000090
:1000d800d0200000d4200000d8200000dc20000040
:1000e800e0200000e4200000e8200000ec200000f0
:1000f800f0200000f4200000f8200000fc200000a0
:100108000021000004210000082100000c2100004b
:10011800102100001421000018210000e021000037
:10012800e02100001c210000202100002421000003
:10013800282100002c21000030210000342100007b
:10014800e021000038210000e02100003c210000ef
:10015800e0210000e0210000e0210000e021000093
:10016800e021000040210000442100004821000057
:10017800e0210000e02100004c2100005021000097
:1001880054210000582100005c210000602100007b
:1001980064210000682100006c210000702100002b
:1001a8007421000078210000e0210000e021000017
:1001b800e0210000e0210000e0210000e021000033
:1001c800e0210000e0210000e0210000e021000023
:1001d800e0210000e0210000e0210000e021000013
:1001e800e0210000e0210000e0210000e021000003
:1001f800e0210000e02100007c21000080210000b7
:1002080084210000882100008c210000902100003a
:1002180094210000982100009c210000a0210000ea
:10022800a4210000a8210000ac210000b02100009a
:10023800b4210000e0210000b8210000bc2100002a
:10024800c0210000c4210000c8210000cc2100000a
:10025800d0210000d4210000d8210000dc210000ba
:020000040000fa
:104000000022040000000000d22204000000000092
:10401000d222040000000000d222040000000000b0
:10402000d222040000000000d222040000000000a0
:10403000d222040000000000d22204000000000090
:10404000d222040000000000d22204000000000080
:10405000d222040000000000d22204000000000070
:10406000d222040000000000ce3204000000000054
:10407000d222040000000000d22204000000000050
:10408000f833040000000000d22204000000000009
:10409000d222040000000000d22204000000000030
:1040a000d222040000000000d22204000000000020
:1040b000d222040000000000d22204000000000010
:1040c000d222040000000000d22204000000000000
:1040d000d222040000000000d222040000000000f0
:1040e000d222040000000000d222040000000000e0
:1040f000d222040000000000d222040000000000d0
:10410000d222040000000000d222040000000000bf
:10411000d222040000000000d222040000000000af
:10412000d222040000000000d2220400000000009f
:10413000d222040000000000d2220400000000008f
:10414000d222040000000000d2220400000000007f
:10415000d222040000000000d2220400000000006f
:10416000d222040000000000d2220400000000005f
:10417000d222040000000000d2220400000000004f
:10418000d222040000000000d2220400000000003f
:10419000d222040000000000d2220400000000002f
:1041a000d222040000000000d2220400000000001f
:1041b000d222040000000000d2220400000000000f
:1041c000d222040000000000d222040000000000ff
:1041d000d222040000000000d222040000000000ef
:1041e000d222040000000000d222040000000000df
:1041f000d222040000000000d222040000000000cf
:10420000d222040000000000d222040000000000be
:10421000d222040000000000d222040000000000ae
:10422000d222040000000000d2220400000000009e
:10423000d222040000000000d2220400000000008e
:10424000d222040000000000d2220400000000007e
:10425000d222040000000000d2220400000000006e
:10426000d222040000000000d2220400000000005e
:10427000d222040000000000d2220400000000004e
:10428000d222040000000000d2220400000000003e
:10429000d222040000000000d2220400000000002e
:1042a000d222040000000000d2220400000000001e
:1042b000d222040000000000d2220400000000000e
:1042c000d222040000000000d222040000000000fe
:1042d000d222040000000000d222040000000000ee
:1042e000d222040000000000d222040000000000de
:1042f000d222040000000000d222040000000000ce
:10430000d222040000000000d222040000000000bd
:10431000d222040000000000d222040000000000ad
:10432000d222040000000000d2220400000000009d
:10433000d222040000000000d2220400000000008d
:10434000d222040000000000d2220400000000007d
:10435000d222040000000000d2220400000000006d
:10436000d222040000000000d2220400000000005d
:10437000d222040000000000d2220400000000004d
:10438000d222040000000000d2220400000000003d
:10439000d222040000000000d2220400000000002d
:1043a000d222040000000000d2220400000000001d
:1043b000d222040000000000d2220400000000000d
:0843c000d222040000000000fd
:020000040000fa
:104400000f8a27000eff27000e0188000000000021
:10441000000020000000e000020032000001200047
:10442000200288000c000700a0b327000100200034
:104430000f000700000020000000e0000200320032
:104440000000020000000000b2770200000000003f
:104450000040da000000fe0020ed20000000e00037
:1044600002003200002020009001880000000600b9
:10447000a1028800800078000000eb001a003700dd
:10448000e280400054a0b4009101ba00e2804000f4
:1044900054a0b4009102ba00e280400054a0b400dd
:1044a0000002eb00472bde00f507b200a6018800f2
:1044b000602ce10008003a000049eb000201e8002e
:1044c000020039003420ec0002f0a0008301e90072
:1044d000f9ff3e00040037006128e10001003200ce
:1044e0000082eb00040007001101ba000200e000a6
:1044f000e3ff3a000000060004d0a300e20f4900e9
:104500001c003900810278003549ba000201e80038
:10451000020039003420ec0002f0a0008301e90021
:104520000f0032002549ba000201e80002003900fc
:104530003420ec0002f0a0008301e9000800320002
:104540000400e0000600320015c9ba000201e800cc
:10455000020039003420ec0002f0a0008301e900e1
:104560008180e80054a0b4000300e000e2ff3a00bc
:10457000000006009102ba00055978008301e900a5
:10458000f7ff3200c82ade00055978008301e900f0
:10459000f3ff32000400e000f1ff320011d9ba004d
:1045a000eeff37000040da000000fe00839f680045
:1045b0000100e00002003d0060001000e0801800f3
:1045c0000300e00002003d0060011100e0811900dd
:1045d000050007004f00e00002003b0060001000f3
:1045e000e0801800000006006022b80006022000eb
:1045f0000000d0008180d2000482d2008582d200e7
:104600000000a0000202520083825a000300310021
:104610000202420083824a000000a1000603e90072
:10462000f3ff3a0000000600800178000200370026
:10463000815978000201e9000200e000fcff3a0025
:044640000000060070
:020000040000fa
:104644001300000014000000150000001600000014
:1046540017000000190000001a0000001c000000f0
:104664001e0000001f0000002100000023000000c5
:1046740025000000270000002a0000002c00000094
:104684002f00000032000000350000003800000058
:104694003b0000003f000000420000004600000014
:1046a4004a0000004f0000005400000058000000c1
:1046b4005e0000006300000069000000700000005c
:1046c400760000007d000000850000008c000000e2
:1046d400950000009e000000a7000000b10000004b
:1046e400bc000000c7000000d2000000df00000092
:1046f400ec000000fa0000000901000019010000ac
:104704002a0100003b0100004e010000620100008c
:10471400770100008d010000a5010000be0100002a
:10472400d9010000f501000012020000320200006d
:1047340053020000770200009c020000c402000043
:10474400ee0200001b0300004a0300007c0300008b
:10475400b1030000e9030000250400006404000024
:10476400a7040000ed0400003905000088050000de
:10477400dc0500003506000094060000f806000081
:1047840062070000d20700004a080000c8080000c1
:104794004d090000db090000710a0000100b000045
:1047a400b80b00006b0c0000280d0000f00d000099
:1047b400c40e0000a50f0000931000008f1100002c
:1047c4009b120000b6130000e21400002016000043
:1047d40071170000d6180000501a0000e01b0000fa
:1047e400881d00004a1f0000262100001f2300002e
:1047f400352500006c270000c4290000402c00006f
:10480400e12e0000ab3100009f340000c0370000ef
:10481400113b0000943e00004d4200003e46000063
:104824006b4a0000d84e00008853000080580000f6
:10483400c35d0000566300003e690000806f000005
:104844000f00000010000000110000001200000022
:104854001300000014000000160000001700000000
:10486400180000001a0000001b0000001d000000da
:104874001f000000200000002200000024000000af
:1048840027000000290000002b0000002e0000007b
:104894003100000033000000370000003a0000003f
:1048a4003d000000410000004500000049000000f8
:1048b4004d00000052000000570000005c000000a2
:1048c40061000000670000006d000000740000003b
:1048d4007a000000820000008900000092000000bd
:1048e4009a000000a3000000ad000000b700000023
:1048f400c2000000ce000000da000000e700000063
:10490400f500000003010000130100002301000072
:1049140035010000470100005a0100006f0100004a
:10492400850100009c010000b4010000ce010000dc
:10493400ea0100000702000026020000470200000e
:10494400690200008e020000b5020000de020000d1
:104954000a03000038030000690300009d030000ff
:10496400d40300000e0400004c0400008d04000079
:10497400d20400001c0500006a050000bc0500000c
:104984001306000070060000d2060000390700007c
:10499400a70700001c080000970800001a0900007f
:1049a400a5090000380a0000d30a0000780b0000b3
:1049b400260c0000df0c0000a30d0000730e0000a5
:1049c4004f0f0000381000002f11000034120000b7
:1049d4004a1300006f140000a6150000f016000032
:1049e4004d180000bf190000471b0000e61c000022
:1049f4009e1e0000702000005e220000692400005a
:104a040093260000de2800004c2b0000e02d00005f
:104a14009a3000007e3300008e360000cc3900004e
:104a24003c3d0000e0400000bb440000d2480000d0
:104a3400264d0000bd51000099560000bf5b0000e8
:104a44000000000032000000640000009600000036
:104a5400c9000000fb0000002d01000060010000ff
:104a640092010000c4010000f701000029020000c7
:104a74005b0200008e020000c0020000f20200008f
:104a8400240300005703000089030000bb03000057
:104a9400ee0300002004000052040000840400001f
:104aa400b7040000e90400001b0500004e050000e7
:104ab40080050000b2050000e405000017060000b0
:104ac400490600007b060000ad060000e006000079
:104ad400120700004407000076070000a907000041
:104ae400db0700000d0800003f080000710800000b
:104af400a4080000d6080000080900003a090000d4
:104b04006c0900009f090000d1090000030a00009d
:104b1400350a0000670a0000990a0000cb0a000069
:104b2400fe0a0000300b0000620b0000940b000032
:104b3400c60b0000f80b00002a0c00005c0c0000ff
:104b44008e0c0000c00c0000f20c0000250d0000cb
:104b5400570d0000890d0000bb0d0000ed0d000095
:104b64001f0e0000510e0000830e0000b50e000061
:104b7400e70e0000190f00004b0f00007c0f00002f
:104b8400ae0f0000e00f00001210000044100000ff
:104b940076100000a8100000da1000000c110000cc
:104ba4003e1100006f110000a1110000d31100009c
:104bb4000512000037120000691200009a1200006a
:104bc400cc120000fe12000030130000611300003c
:104bd40093130000c5130000f6130000281400000e
:104be4005a1400008c140000bd140000ef140000df
:104bf400201500005215000084150000b5150000b2
:104c0400e7150000181600004a1600007b16000085
:104c1400ad160000df160000101700004117000059
:104c240073170000a4170000d6170000071800002f
:104c3400391800006a1800009b180000cd18000005
:104c4400fe180000301900006119000092190000dc
:104c5400c3190000f5190000261a0000571a0000b5
:104c6400881a0000ba1a0000eb1a00001c1b00008e
:104c74004d1b00007e1b0000af1b0000e11b000069
:104c8400121c0000431c0000741c0000a51c000042
:104c9400d61c0000071d0000381d0000691d00001f
:104ca4009a1d0000cb1d0000fc1d00002d1e0000fd
:104cb4005d1e00008e1e0000bf1e0000f01e0000de
:104cc400211f0000521f0000821f0000b31f0000bc
:104cd400e41f00001520000045200000762000009d
:104ce400a7200000d720000008210000392100007f
:104cf400692100009a210000ca210000fb21000064
:104d04002b2200005c2200008c220000bd22000047
:104d1400ed2200001d2300004e2300007e2300002e
:104d2400ae230000df2300000f2400003f24000016
:104d340070240000a0240000d024000000250000fe
:104d4400302500006025000091250000c1250000e9
:104d5400f1250000212600005126000081260000d4
:104d6400b1260000e12600001127000040270000c2
:104d740070270000a0270000d027000000280000b2
:104d8400302800005f2800008f280000bf280000a2
:104d9400ee2800001e2900004e2900007d29000095
:104da400ad290000dd2900000c2a00003c2a000087
:104db4006b2a00009b2a0000ca2a0000f92a00007e
:104dc400292b0000582b0000872b0000b72b000074
:104dd400e62b0000152c0000442c0000742c00006d
:104de400a32c0000d22c0000012d0000302d000067
:104df4005f2d00008e2d0000bd2d0000ec2d000065
:104e04001b2e00004a2e0000792e0000a82e000060
:104e1400d72e0000062f0000342f0000632f00005f
:104e2400922f0000c02f0000ef2f00001e30000062
:104e34004c3000007b300000a9300000d830000066
:104e44000731000035310000633100009231000069
:104e5400c0310000ef3100001d3200004b32000071
:104e640079320000a8320000d6320000043300007a
:104e740032330000603300008e330000bc33000086
:104e8400ea33000018340000463400007434000093
:104e9400a2340000d0340000fe3400002b350000a2
:104ea4005935000087350000b5350000e2350000b3
:104eb400103600003d3600006b36000098360000c6
:104ec400c6360000f3360000213700004e370000dc
:104ed4007c370000a9370000d637000003380000f3
:104ee400313800005e3800008b380000b83800000c
:104ef400e5380000123900003f3900006c39000029
:104f040099390000c6390000f3390000203a000046
:104f14004d3a0000793a0000a63a0000d33a000066
:104f2400003b00002c3b0000593b0000853b000087
:104f3400b23b0000de3b00000b3c0000373c0000ad
:104f4400643c0000903c0000bc3c0000e93c0000d4
:104f5400153d0000413d00006d3d0000993d0000fd
:104f6400c53d0000f13d00001d3e0000493e00002b
:104f7400753e0000a13e0000cd3e0000f93e000059
:104f8400253f0000503f00007c3f0000a83f000088
:104f9400d33f0000ff3f00002b40000056400000bc
:104fa40082400000ad400000d840000004410000f1
:104fb4002f4100005a41000086410000b141000029
:104fc400dc41000007420000324200005d42000064
:104fd40088420000b3420000de42000009430000a2
:104fe400344300005f43000089430000b4430000e1
:104ff400df43000009440000344400005f44000023
:1050040089440000b4440000de4400000845000068
:10501400334500005d45000087450000b1450000b0
:10502400dc45000006460000304600005a460000f9
:1050340084460000ae460000d84600000247000047
:105044002c470000554700007f470000a947000097
:10505400d2470000fc470000264800004f480000eb
:1050640079480000a2480000cc480000f548000040
:105074001e49000048490000714900009a49000097
:10508400c3490000ec490000154a00003e4a0000f4
:10509400674a0000904a0000b94a0000e24a000052
:1050a4000b4b0000334b00005c4b0000854b0000b1
:1050b400ad4b0000d64b0000fe4b0000274c000017
:1050c4004f4c0000784c0000a04c0000c84c00007d
:1050d400f04c0000194d0000414d0000694d0000e6
:1050e400914d0000b94d0000e14d0000094e000053
:1050f400314e0000584e0000804e0000a84e0000c3
:10510400d04e0000f74e00001f4f0000464f000035
:105114006e4f0000954f0000bd4f0000e44f0000ab
:105124000b500000325000005a5000008150000023
:10513400a8500000cf500000f65000001d510000a0
:10514400445100006b51000091510000b85100001f
:10515400df510000055200002c52000053520000a1
:1051640079520000a0520000c6520000ec52000028
:1051740013530000395300005f53000085530000af
:10518400ab530000d1530000f75300001d5400003e
:1051940043540000695400008f540000b5540000cb
:1051a400da54000000550000255500004b5500005e
:1051b4007155000096550000bb550000e1550000f4
:1051c400065600002b56000050560000755600008d
:1051d4009b560000c0560000e55600000957000029
:1051e4002e57000053570000785700009d570000c9
:1051f400c1570000e65700000a5800002f5800006d
:1052040053580000785800009c580000c058000013
:10521400e5580000095900002d59000051590000bb
:105224007559000099590000bd590000e15900006a
:10523400045a0000285a00004c5a00006f5a00001b
:10524400935a0000b75a0000da5a0000fd5a0000d1
:10525400215b0000445b0000675b00008b5b000087
:10526400ae5b0000d15b0000f45b0000175c000043
:105274003a5c00005d5c00007f5c0000a25c000002
:10528400c55c0000e75c00000a5d00002d5d0000c5
:105294004f5d0000715d0000945d0000b65d00008c
:1052a400d85d0000fa5d00001d5e00003f5e000056
:1052b400615e0000835e0000a55e0000c65e000023
:1052c400e85e00000a5f00002c5f00004d5f0000f4
:1052d4006f5f0000905f0000b25f0000d35f0000ca
:1052e400f45f0000166000003760000058600000a2
:1052f400796000009a600000bb600000dc60000080
:10530400fd6000001e6100003e6100005f6100005e
:1053140080610000a0610000c1610000e161000043
:105324000262000022620000426200006362000028
:1053340083620000a3620000c3620000e362000015
:105344000363000023630000426300006263000003
:1053540082630000a1630000c1630000e0630000f9
:10536400006400001f6400003f6400005e640000ed
:105374007d6400009c640000bb640000da640000eb
:10538400f9640000186500003765000056650000e8
:105394007465000093650000b2650000d0650000ec
:1053a400ef6500000d6600002b6600004a660000f1
:1053b4006866000086660000a4660000c2660000fd
:1053c400e0660000fe6600001c6700003a6700000b
:1053d400576700007567000092670000b06700001f
:1053e400cd670000eb670000086800002568000036
:1053f40043680000606800007d6800009a6800004f
:10540400b7680000d4680000f16800000d6900006e
:105414002a69000047690000636900008069000090
:105424009c690000b9690000d5690000f1690000b9
:105434000e6a00002a6a0000466a0000626a0000e0
:105444007e6a00009a6a0000b56a0000d16a000012
:10545400ed6a0000086b0000246b0000406b000044
:105464005b6b0000766b0000926b0000ad6b00007c
:10547400c86b0000e36b0000fe6b0000196c0000b9
:10548400346c00004f6c00006a6c0000846c0000f7
:105494009f6c0000ba6c0000d46c0000ef6c00003c
:1054a400096d0000236d00003e6d0000586d000082
:1054b400726d00008c6d0000a66d0000c06d0000d0
:1054c400da6d0000f36d00000d6e0000276e000021
:1054d400406e00005a6e0000736e00008d6e000076
:1054e400a66e0000bf6e0000d96e0000f26e0000d0
:1054f4000b6f0000246f00003d6f0000566f00002a
:105504006e6f0000876f0000a06f0000b86f00008e
:10551400d16f0000e96f0000027000001a700000f3
:10552400327000004a700000627000007b7000005e
:1055340092700000aa700000c2700000da700000cf
:10554400f270000009710000217100003871000040
:1055540050710000677100007e71000096710000b8
:10556400ad710000c4710000db710000f271000035
:105574000972000020720000367200004d720000b3
:10558400647200007a72000091720000a772000039
:10559400bd720000d4720000ea72000000730000c3
:1055a400167300002c73000042730000587300004f
:1055b4006e7300008373000099730000ae730000e3
:1055c400c4730000d9730000ef730000047400007a
:1055d400197400002e740000437400005874000015
:1055e4006d7400008274000097740000ac740000b5
:1055f400c0740000d5740000ea740000fe7400005a
:1056040012750000277500003b7500004f750000ff
:1056140063750000777500008b7500009f750000ae
:10562400b3750000c7750000da750000ee75000060
:105634000176000015760000287600003b76000015
:105644004f760000627600007576000088760000d0
:105654009b760000ae760000c1760000d376000091
:10566400e6760000f97600000b7700001e77000054
:10567400307700004277000054770000677700001d
:10568400797700008b7700009d770000af770000ea
:10569400c0770000d2770000e4770000f5770000bf
:1056a40007780000187800002a7800003b78000092
:1056b4004c7800005d7800006e7800007f78000070
:1056c40090780000a1780000b2780000c378000050
:1056d400d3780000e4780000f47800000579000035
:1056e400157900002579000036790000467900001c
:1056f400567900006679000076790000857900000b
:1057040095790000a5790000b5790000c4790000fe
:10571400d4790000e3790000f2790000027a0000f5
:10572400117a0000207a00002f7a00003e7a0000ef
:105734004d7a00005b7a00006a7a0000797a0000f2
:10574400877a0000967a0000a47a0000b37a0000f9
:10575400c17a0000cf7a0000dd7a0000eb7a000005
:10576400f97a0000077b0000157b0000237b000012
:10577400317b00003e7b00004c7b0000597b000025
:10578400677b0000747b0000817b00008e7b00003f
:105794009b7b0000a87b0000b57b0000c27b00005f
:1057a400cf7b0000dc7b0000e87b0000f57b000081
:1057b400027c00000e7c00001a7c0000277c0000a4
:1057c400337c00003f7c00004b7c0000577c0000d1
:1057d400637c00006f7c00007a7c0000867c000003
:1057e400927c00009d7c0000a97c0000b47c000039
:1057f400bf7c0000cb7c0000d67c0000e17c000074
:10580400ec7c0000f77c0000027d00000c7d0000b1
:10581400177d0000227d00002c7d0000377d0000f4
:10582400417d00004b7d0000567d0000607d00003e
:105834006a7d0000747d00007e7d0000887d00008c
:10584400917d00009b7d0000a57d0000ae7d0000e1
:10585400b87d0000c17d0000cb7d0000d47d000038
:10586400dd7d0000e67d0000ef7d0000f87d000096
:10587400017e00000a7e0000137e00001b7e0000f3
:10588400247e00002c7e0000357e00003d7e00005a
:10589400457e00004d7e0000567e00005e7e0000c6
:1058a400667e00006d7e0000757e00007d7e000037
:1058b400857e00008c7e0000947e00009b7e0000ac
:1058c400a37e0000aa7e0000b17e0000b87e000026
:1058d400bf7e0000c67e0000cd7e0000d47e0000a6
:1058e400db7e0000e17e0000e87e0000ee7e00002a
:1058f400f57e0000fb7e0000017f0000087f0000b1
:105904000e7f0000147f00001a7f0000207f00003b
:10591400257f00002b7f0000317f0000367f0000d0
:105924003c7f0000417f0000477f00004c7f000067
:10593400517f0000567f00005b7f0000607f000005
:10594400657f00006a7f00006f7f0000747f0000a5
:10595400787f00007d7f0000817f0000857f00004c
:105964008a7f00008e7f0000927f0000967f0000f7
:105974009a7f00009e7f0000a27f0000a67f0000a7
:10598400a97f0000ad7f0000b07f0000b47f00005d
:10599400b77f0000ba7f0000be7f0000c17f000017
:1059a400c47f0000c77f0000ca7f0000cc7f0000d6
:1059b400cf7f0000d27f0000d47f0000d77f00009b
:1059c400d97f0000dc7f0000de7f0000e07f000064
:1059d400e27f0000e47f0000e67f0000e87f000033
:1059e400ea7f0000ec7f0000ed7f0000ef7f000005
:1059f400f17f0000f27f0000f37f0000f57f0000dc
:105a0400f67f0000f77f0000f87f0000f97f0000b8
:105a1400fa7f0000fb7f0000fb7f0000fc7f00009a
:105a2400fd7f0000fd7f0000fe7f0000fe7f000080
:105a3400fe7f0000fe7f0000fe7f0000ff7f00006d
:105a4400010000000100000002000000020000004c
:105a54000300000003000000040000000400000034
:105a6400050000000500000006000000060000001c
:105a74000700000007000000080000000800000004
:105a840009000000090000000a0000000a000000ec
:105a94000b0000000b0000000c0000000c000000d4
:105aa4000d0000000d0000000e0000000e000000bc
:105ab4000f0000000f0000001000000010000000a4
:105ac400110000001100000012000000120000008c
:105ad4001300000013000000140000001400000074
:105ae400150000001500000016000000160000005c
:105af4001700000017000000180000001800000044
:105b040019000000190000001a0000001a0000002b
:105b14001b0000001b0000001c0000001c00000013
:105b24001d0000001d0000001e0000001e000000fb
:105b34001f0000001f0000002000000020000000e3
:105b440021000000210000002200000022000000cb
:105b540023000000230000002400000024000000b3
:105b6400250000002500000026000000260000009b
:105b74002700000027000000280000002800000083
:105b840029000000290000002a0000002a0000006b
:105b94002b0000002b0000002c0000002c00000053
:105ba4002d0000002d0000002e0000002f0000003a
:105bb4003100000032000000340000003500000015
:105bc40037000000390000003a0000003c000000eb
:105bd4003e000000400000004200000044000000bd
:105be40046000000480000004a0000004c0000008d
:105bf4004e0000005000000052000000540000005d
:105c040057000000590000005b0000005e00000027
:105c140060000000630000006500000068000000f0
:105c24006a0000006d0000007000000073000000b6
:105c340075000000780000007b0000007e0000007a
:105c44008100000084000000870000008a0000003a
:105c54008d000000910000009400000097000000f7
:105c64009b0000009e000000a1000000a5000000b1
:105c7400a8000000ac000000b0000000b300000069
:105c8400b7000000bb000000bf000000c30000001c
:105c9400c7000000cb000000cf000000d3000000cc
:105ca400d7000000dc000000e0000000e400000079
:105cb400e9000000ed000000f2000000f600000022
:105cc400fb000000000100000401000009010000c5
:105cd4000e01000013010000180100001d01000066
:105ce40022010000280100002d0100003201000003
:105cf400380100003d01000043010000480100009c
:105d04004e01000053010000590100005f01000032
:105d1400650100006b0100007101000077010000c3
:105d24007d010000830100008a0100009001000051
:105d3400970100009d010000a4010000aa010000d9
:105d4400b1010000b8010000bf010000c60100005d
:105d5400cd010000d4010000db010000e2010000dd
:105d6400e9010000f1010000f80100000002000058
:105d7400070200000f020000170200001e020000cc
:105d8400260200002e020000360200003e0200003f
:105d9400470200004f0200005702000060020000aa
:105da4006802000071020000790200008202000013
:105db4008b020000940200009d020000a602000075
:105dc400af020000b8020000c2020000cb020000d3
:105dd400d4020000de020000e8020000f10200002c
:105de400fb020000050300000f030000190300007c
:105df400230300002e0300003803000042030000c8
:105e04004d03000057030000620300006d0300000f
:105e140078030000830300008e0300009903000050
:105e2400e80300004c040000b00400001405000066
:105e3400dc050000d0070000b90b0000a00f000033
:105e44000002000024000000030100000201000021
:105e5400000000006c0100000000000000000000d1
:105e6400000000000000000000000000000000002e
:105e740001000000007f0000000b00000100000092
:105e840000030000300000000301000002010000d4
:105e9400000000006c010000000000000000000091
:105ea40000000000000000000000000000000000ee
:105eb400010000005e7f0000000b000001000000f4
:105ec4000000000030000000030100000201000097
:105ed4000000000042010000163f00007a000000ac
:105ee40000000000000000000000000000000000ae
:105ef400010000007d7f0000000b00000100000095
:105f04000002000030000000060100000200000052
:105f140000000000420100002b4000007f00000050
:105f2400710e00001d350000281c00002f350000f4
:105f34000100000000780000000b000001000000d8
:105f4400000200001400000003010000025e0000d3
:105f5400000000003a010000237700001800000050
:105f640071000000460000002d0000005b060000e8
:105f7400010000004a5f0000000b00000100000067
:105f840000000000140000000501000002000000f1
:105f940000000000420100002b6d00007f000000a3
:105fa400710e00001d350000281c00002f35000074
:105fb400010000004a5f0000000b00000100000027
:105fc40000020000140000000801000002000000ac
:105fd4000b0300005c010000106d00007f00000056
:105fe400710e00001d350000281c00002f35000034
:105ff400020000006d000000000b00000100000022
:10600400000200001400000008010000020000006b
:10601400650300005c010000106d00007f000000bb
:10602400710e00001d350000281c00002f350000f3
:10603400021300004a740000000b0000010000007d
:106044000002000024000000020200000000000022
:10605400650300005c010000162a00007f000000b8
:10606400710e00001d350000281c00002f350000b3
:10607400020000004a780000000b0000010000004c
:10608400000200002400000002010000027f000062
:10609400650300005c010000106200001b000000aa
:1060a400710e00001d350000281c00002f35000073
:1060b400021700004a7d0000000b000002000000ef
:1060c400000200002400000006010000027f00001e
:1060d400650300005c010000106200001b0000006a
:1060e400660000001d0d0000001c000000350000cb
:1060f400021700004a7d0000000b000002000000af
:106104000000000024000000060100000225000039
:10611400650300005c010000104a00005800000004
:10612400710e00001d350000281c00006170000085
:10613400020800004a7d0000010b0000010000007d
:106144000002000024000000010100000200000021
:10615400650300005c0100001076000012000000de
:10616400710e00001d350000281c00006170000045
:10617400020000004a710000010b00000100000051
:1061840001040000240000000101000002000000de
:10619400650300005c000000000000000000000037
:1061a40000000000000000000000000000000000eb
:1061b400027f000000000000010b0000010000004d
:1061c400010200002400000001010000020c000094
:1061d400650300005c0000000000000000000000f7
:1061e40000000000000000000000000000000000ab
:1061f400027f000000000000010b0000010000000d
:10620400010200002400000001010000020c000053
:10621400650300005c0000000000000000000000b6
:10622400000000000000000000000000000000006a
:10623400027f000000000000010b000001000000cc
:10624400120100000002000000000000000800002d
:106254006606000060000000020000000102000069
:1062640000010000090200006500000002010000b6
:1062740000c000003209000004000000000000001b
:1062840001010000000000000924000001000000da
:1062940001090000000100000109000004010000e0
:1062a40000020000010300000000000007240000b9
:1062b400010000000141000000060000240200006b
:1062c4000101000000060000240200000202000098
:1062d4000009000024030000010300000102000083
:1062e4000100000009240000030200000401000072
:1062f4000101000000090000050100000240000047
:10630400000000000000000005250000010100005d
:1063140001090000058100000240000000000000a7
:10632400000000000525000001010000030000003a
:106334000403000009040000340300004d000000c1
:106344006900000063000000720000006f0000009c
:106354006300000068000000690000007000000095
:1063640020000000540000006500000063000000ed
:10637400680000006e0000006f0000006c00000068
:106384006f0000006700000079000000200000009a
:10639400490000006e000000630000002e000000b1
:1063a4001a030000520000006900000062000000af
:1063b400620000006f0000006e000000200000007a
:1063c4004d00000061000000720000006b0000003e
:1063d4003200000034b100009ab100009eb1000008
:0463e400d2b1000032
:020000040000fa
:1063e8000800fa000028a900210a8000010f78009f
:1063f800210a800011079800210a800021079800cf
:10640800210a800031079800be0090002e009000fd
:106418000080500020868800208680000080d100ff
:10642800208688000080fa00000006000800fa00b4
:106438000028a900200a8000000f7800210a8000a7
:1064480011079800220a800022079800240a800079
:1064580034079800be0090002e0090000080500085
:10646800100798001e0090000000d1001007980047
:106478009e009000010f7800208680001e0f1000fb
:106488001e0078000000e00002003d000000eb0064
:10649800000f7800f01321001080fb000114210088
:1064a8009180fb00c808dd00010070009e007800a4
:1064b80000017800110009008200d800000f780060
:1064c800f086800001878000ff09b900e002b9006a
:1064d8008401780003014100f30120000300b800a3
:1064e80001014100820078001e017800cf91de0092
:1064f8000000410081804900f086880001878800fb
:10650800f0868000018780004b09dd004500de0031
:1065180000007100c508de00f08688000187880049
:10652800f286800003878000f00720000100200029
:10653800800f5100818f590004003600f0072000b9
:1065480001002000f086880001878800f08680001e
:106558000187800000007800f10f20000101600031
:106568004115210091417800e0c1610002c171002c
:1065780082487800c800de005015210010417800dc
:106588006041610081407100014878000080fa0094
:1065980000000600809fbe000800fa0000a8a900bd
:1065a800600a8000000f7800610a800011079800d7
:1065b800610a800021079800610a8000310798006d
:1065c8000080fa004f00be00004006000200fa00fa
:1065d800000f78009e00780041138800000000003a
:1065e80000138000620060000000e000fcff320041
:1065f8000000000000138000610060000000e0005f
:10660800fcff3200401380000080fa000000060002
:106618000200fa00000f78009e00780041128800fe
:106628000000000000128000620060000000e0002e
:10663800fcff3200000000000012800061006000d2
:106648000000e000fcff3200401280000080fa00e9
:10665800000006001000fa00500798006107980033
:1066680072079800ee0090005e00900000805000d5
:10667800cf80de003007980041079800de009000c8
:10668800010f78002e0037005e0090001e001000f9
:10669800cf80de0010079800210798001e019000a7
:1066a800ae0190004918dd00c710de0081007000bf
:1066b8004910dd0010079800210798003e0190005e
:1066c800ce0190001e009000ae009000b5f70700c4
:1066d80010079800210798007e009000cf80de0008
:1066e8001e019000ae019000020040008380480027
:1066f80010079800210798001e019000ae01900035
:10670800f0ff200001002000800f5100818f590008
:1067180004003400f0ff200001002000100798005a
:10672800210798009e0090001e007800000140009c
:10673800a05c250000004100010878001e0fe80059
:106748006e0090009e007800808f5000ceff3500cc
:106758000080fa00000006000000fa0050bb830029
:106768000001eb00800078000000eb00b9ff070093
:1067780061bb830050bb830002202000b5ff0700e7
:1067880071bb830060bb830002402000b1ff07009b
:1067980081bb830070bb830002602000adff07004f
:1067a80091bb830080bb830002802000a9ff070003
:1067b800a1bb830090bb830002a02000a5ff0700b7
:1067c800b1bb8300a0bb830002c02000a1ff07006b
:1067d800b0bb830002e02000010021009dff0700fc
:1067e8000080fa0000000600809fbe000200fa0048
:1067f8000108a900a2d0bf000040e800a2f0b7003d
:10680800a2d0bf00f043b200a2f0b700a2d0bf00f0
:106818000004e0000c003a0010c0b30000f0b7001c
:1068280000c2b30001f0b70000188000208588007e
:106838004119800000fe2f00008060000000a000c9
:10684800401988002023a800210a210091407800df
:1068580000c2b30080cf50000a003a0010c0b30055
:1068680000f0b7000170ef00001880003085880044
:106878004119800000fe2f00008060004019880048
:106888002023a80080122100104078000000fb009f
:106898000000e00003003200e10f50001a0032004f
:1068a8004a003700a2d0bf000080fb0080004000f3
:1068b800203625000080400090007800000021006c
:1068c800008f4000342ea9009e00780041128800f5
:1068d8000000000000128000620060000000e0007c
:1068e800fcff320000000000001280006100600020
:1068f8000000e000fcff320041128000010f780028
:10690800342ea80031003700a2d0bf000080fb0061
:10691800800040002036250000804000900078006c
:1069280000002100008f4000342ea9009e0078004e
:106938004112880000000000001280006200600020
:106948000000e000fcff32000000000000128000a0
:10695800610060000000e000fcff3200411280008e
:10696800010f7800342ea800a2d0bf000080fb00e1
:1069780080004000203e2500008040009000780004
:1069880000002900008f4000342ea9009e007800e6
:1069980041128800000000000012800062006000c0
:1069a8000000e000fcff3200000000000012800040
:1069b800610060000000e000fcff3200411280002e
:1069c800010f7800342ea800000000000080fa00b3
:1069d8004f00be00004006000000fa00d8d0bf00fb
:1069e8000040400080407800907180004b00de003d
:1069f8006140600000c0400061406000d8f0b7000e
:106a0800810d210091407800d9d0bf0080cf50007f
:106a18003d003200d8d0bf00d9f0b700d8d0bf00b1
:106a28000004e00038003a00001621001040780009
:106a38008040e80000162100014878000016210077
:106a480010407800ef4060000016210001487800ef
:106a580000162100104078000080fb000000e800cc
:106a6800a15a2500432007008000eb00a05a25000a
:106a7800011d07000cd1bf008080fb00a26c27001d
:106a880081004100c2c0b300824878000040e8009d
:106a98000cf1b7000cd1bf008080fb0072132100fd
:106aa800124178008241780002ccb30002c1410053
:106ab800a36c270081804100824878000040e800ec
:106ac8000cf1b7000cd1bf008080fb00021621003a
:106ad80012417800a36c2700818041008248780029
:106ae8000040e8000cf1b7000cd1bf008080fb002b
:106af800a26c2700810041000041eb008248780029
:106b08000040e8000cf1b700dad0bf0000404000b8
:106b180080407800907180000040780061406000fb
:106b280000c0400061406000daf0b700a10d21000c
:106b380091407800dbd0bf0080cf50003d0032008c
:106b4800dad0bf00dbf0b700dad0bf000004e00005
:106b58002f003a0000162100104078008040e9001c
:106b68000016210001487800001621001040780026
:106b7800ef40600000162100014878000cd1bf00ea
:106b88008080fb00a26c270081004100c2c0b300d6
:106b9800824878000040e8000cf1b7000cd1bf0033
:106ba8008080fb0072132100124178008241780036
:106bb80002ccb30002c14100a36c270081804100d0
:106bc800824878000040e8000cf1b7000cd1bf0003
:106bd8008080fb000216210012417800a36c270078
:106be80081804100824878000040e8000cf1b7003d
:106bf8000cd1bf008080fb00a26c270081004100ff
:106c08000041eb00824878000040e8000cf1b70032
:106c180000162100104078000080fb000000e8000a
:106c2800a15a2500d31f07008000eb00a05a2500b9
:106c3800911c07000080fa00000006000a00fa0014
:106c480010c0b30020479800201521001080fb00d9
:106c5800311521009180fb00c808dd00010070009b
:106c68000080d100200798002e009000e10f50000e
:106c78008e01340070122100104078000000fb00e3
:106c8800e20f5000f1003200e30f5000af00320075
:106c9800e10f500077003200ced0bf000004e000c2
:106ca8002e003a000cd1bf008080fb00a26c2700a8
:106cb8008100410092c0b300824878000040e8009b
:106cc8000cf1b7000cd1bf008080fb0072132100cb
:106cd800124178008241780002c9b30002c1410024
:106ce800a36c270081804100824878000040e800ba
:106cf8000cf1b7000cd1bf008080fb00921221007c
:106d080012417800a36c27008180410082487800f6
:106d18000040e8000cf1b7000cd1bf008080fb00f8
:106d2800a26c270081004100f2c7b30082487800b6
:106d38000040e8000cf1b70010c0b300cef0b70077
:106d48009012210010407800cff0b7000080eb00cf
:106d5800808688000040eb002047980040142100fe
:106d68001080fb00511421009180fb00c808dd0051
:106d7800010070008000780080868000808f5000bd
:106d8800430132000cd1bf008080fb00a26c2700b9
:106d980081004100e2c0b300824878000040e8006a
:106da8000cf1b7000cd1bf008080fb0072132100ea
:106db800124178008241780002ceb30002c141003e
:106dc800a36c270081804100824878000040e800d9
:106dd8000cf1b7000cd1bf008080fb0042142100e9
:106de8001281fb00531421009381fb00c819dd00b8
:106df800030171004211dd00024178000274a10014
:106e0800a36c270081804100824878000040e80098
:106e18000cf1b7000cd1bf008080fb0042142100a8
:106e28001281fb00531421009381fb00c819dd0077
:106e3800030171004591de00024178000274a1004f
:106e4800a36c270081804100824878000040e80058
:106e58000cf1b700401421001080fb0051142100f0
:106e68009180fb00c808dd00010070008086880062
:106e78000e013700ced0bf000004e00006013a0042
:106e88000cd1bf008080fb00a26c2700810041006c
:106e980092c0b300824878000040e8000cf1b700c7
:106ea8000cd1bf008080fb007213210012417800d2
:106eb8008241780002c9b30002c14100a36c2700d7
:106ec80081804100824878000040e8000cf1b7005a
:106ed800e01421001080fb00f11421009180fb00d8
:106ee800c808dd00010070004580de000040780021
:106ef800cff0b7000cd1bf008080fb00f20c21005e
:106f080012417800a36c27008180410082487800f4
:106f18000040e8000cf1b7000cd1bf008080fb00f6
:106f2800a26c270081004100f2c7b30082487800b4
:106f38000040e8000cf1b70010c0b300cef0b70075
:106f48000040eb0020479800d8003700ced0bf00a3
:106f58000004e000d2003a00d030ef009012210087
:106f680010407800004f9800e01421001080fb00ca
:106f7800f21421001281fb004811dd0002007000ac
:106f880000017800500520008001780011000900f8
:106f98000301d800004078008e48900000c04000ef
:106fa800cff0b7000cd1bf008080fb00a26c270097
:106fb8008100410092c0b300824878000040e80098
:106fc8000cf1b7000cd1bf008080fb0072132100c8
:106fd800124178008241780002c9b30002c1410021
:106fe800a36c270081804100824878000040e800b7
:106ff8000cf1b7000cd1bf008080fb00f20c21001f
:1070080012417800a36c27008180410082487800f3
:107018000040e8000cf1b7000cd1bf008080fb00f5
:10702800a26c270081004100f2c7b30082487800b3
:107038000040e8000cf1b70010c0b300cef0b70074
:107048000040eb002047980098003700ced0bf00e2
:10705800e14f500046003a00401421001080fb0028
:10706800511421009180fb00c808dd000100700068
:10707800800078009086800080805000008020008a
:10708800008f4000f0ff20009e007800808f5000a5
:1070980002003400f0ff2000000f78001e00780086
:1070a8000000e00002003d000000eb00000f780047
:1070b800808680009e007800808f50002c0032006f
:1070c8000cd1bf008080fb00a26c2700810041002a
:1070d800e2c0b300824878000040e8000cf1b70035
:1070e8000cd1bf008080fb00721321001241780090
:1070f8008241780002ceb30002c14100a36c270090
:1071080081804100824878000040e8000cf1b70017
:107118000cd1bf008080fb001e0178004211dd0009
:10712800024178000274a100a36c2700818041000d
:10713800824878000040e8000cf1b7000cd1bf008d
:107148008080fb001e0178004591de000241780036
:107158000274a100a36c2700818041008248780056
:107168000040e8000cf1b7009e0178008386880093
:10717800ced0bf000004e0004b003a000080eb00d6
:10718800808688009012210010407800004f9800f7
:10719800e01421001080fb00f21421001281fb0092
:1071a8004811dd0002007000000178005005200041
:1071b80080017800110009000301d8000040780020
:1071c8008e48900000c04000cff0b700e0142100c6
:1071d8001080fb00f11421009180fb00c808dd003d
:1071e80001007000908688000cd1bf008080fb00f1
:1071f800a26c27008100410092c0b3008248780049
:107208000040e8000cf1b7000cd1bf008080fb0003
:1072180072132100124178008241780002c9b3003c
:1072280002c14100a36c2700818041008248780098
:107238000040e8000cf1b7000cd1bf008080fb00d3
:10724800f20c210012417800a36c270081804100d4
:10725800824878000040e8000cf1b7000cd1bf006c
:107268008080fb00a26c270081004100f2c7b300b8
:10727800824878000040e8000cf1b70010c0b30065
:10728800cef0b7000040eb00204798000700370019
:107298000000000005003700000000000300370070
:1072a8000000000001003700000000002e009000e0
:1072b800e10f500032003c00ced0bf00e14f50003b
:1072c80028003a000cd1bf008080fb00a26c270088
:1072d8008100410082c0b300824878000040e80085
:1072e8000cf1b7000cd1bf008080fb0072132100a5
:1072f800124178008241780002c8b30002c14100ff
:10730800a36c270081804100824878000040e80093
:107318000cf1b7000cd1bf008080fb00f20c2100fb
:1073280012417800a36c27008180410082487800d0
:107338000040e8000cf1b7000cd1bf008080fb00d2
:10734800a26c2700810041000041eb0082487800d0
:107358000040e8000cf1b700ce70ef000040eb00f1
:1073680020479800e01421001080fb00f114210050
:107378009180fb00c808dd0001007000908688003d
:107388002e4090000004e00060003200a0868000db
:10739800ae009000808f500028003200ae019000af
:1073a800a38688000cd1bf008080fb00a26c270058
:1073b80081004100b2c0b300824878000040e80074
:1073c8000cf1b7000cd1bf008080fb0072132100c4
:1073d800124178008241780002cbb30002c141001b
:1073e800a36c270081804100824878000040e800b3
:1073f8000cf1b7000cd1bf008080fb008213210084
:1074080012417800a36c27008180410082487800ef
:107418000040e8000cf1b7000cd1bf008080fb00f1
:107428002e01900002417800a36c27008180410062
:10743800824878000040e8000cf1b70040152100b0
:107448001080fb00511521009180fb00c808dd0069
:107458000100700030079800b0868000be009000e0
:10746800808f5000290032000cd1bf008080fb00c3
:10747800a26c270081004100b2c0b30082487800a6
:107488000040e8000cf1b7000cd1bf008080fb0081
:1074980072132100124178008241780002cbb300b8
:1074a80002c14100a36c2700818041008248780016
:1074b8000040e8000cf1b7000cd1bf008080fb0051
:1074c8009213210012417800a36c270081804100ab
:1074d800824878000040e8000cf1b7000cd1bf00ea
:1074e8008080fb003e019000024178000274a100f8
:1074f800a36c270081804100824878000040e800a2
:107508000cf1b700be009000b18688000080fa0038
:10751800000006000000fa0020858000f1ff20002e
:1075280000805000f10f20000101600021152100aa
:1075380091417800e0c1610002c171008248780081
:10754800c800de003015210010417800604161005c
:107558008140710001487800201521001080fb004f
:10756800311521009180fb00c808dd000100700082
:107578004480de00f10f2000010160002115210088
:1075880091417800e0c1610002c171008248780031
:10759800c800de003015210010417800604161000c
:1075a8008140710001487800201521001080fb00ff
:1075b800311521009180fb00c808dd000100700032
:1075c8000000e00012003400308580008000400098
:1075d800a05c25000080400010007800f10f20001a
:1075e800010160004114210091417800e0c161006f
:1075f80002c1710082487800c800de0050142100e2
:1076080010417800604161008140710001487800b4
:1076180070122100104078000024a2000080fb00b6
:107628000000e9004f00de0000407800211521002d
:107638009180fb00321521001281fb004811dd000a
:107648008280700001f0a7008100ea008100e90053
:10765800cf08de0081407800014060000004e000af
:10766800090032004014210090407800e0c060001a
:10767800014878005014210090407800e0c0600074
:107688000134a00001487800d01221001040780091
:107698000004e00015003200401421001080fb00b7
:1076a800511421009180fb00c808dd000100700022
:1076b800f1ff200000805000f10f20000101600060
:1076c8004114210091417800e0c1610002c17100bc
:1076d80082487800c800de0050142100104178006c
:1076e8006041610081407100014878004014210028
:1076f8001080fb00511421009180fb00c808dd00b8
:1077080001007000f10f200001016000e114210068
:1077180091417800e0c1610002c17100824878009f
:10772800c800de00f01421001041780060416100bb
:107738008140710001487800401421001080fb004e
:10774800511421009180fb00c808dd000100700081
:1077580080007800601421001080fb007214210062
:107768001281fb004811dd0002007000e700b9003b
:10777800808040008000200000017800110009008e
:107788008200d800f10f200001016000411421009f
:1077980091417800e0c1610002c17100824878001f
:1077a800c800de00501421001041780060416100db
:1077b8008140710001487800401421001080fb00ce
:1077c800511421009180fb00c808dd000100700001
:1077d800f10f20000101600061142100914178003f
:1077e800e0c1610002c1710082487800c800de0073
:1077f80070142100104178006041610081407100df
:1078080001487800e015210011c0b3000148780054
:10781800201521001080fb00311521009180fb000c
:10782800c808dd000100700080007800100020000a
:107838000100e000010034000000eb00e115210028
:10784800914078008100fb00010060000000e0002a
:1078580003003200e01521008040eb000148780069
:1078680070122100104078000000fb00e20f500069
:1078780099013200e20f500005003c000000e000d2
:1078880007003200e10f50005e003200fe013700b1
:10789800e30f5000f1003200e40f5000fa013a0003
:1078a800401421001080fb00511421009180fb003e
:1078b800c808dd00010070004580de00f10f2000df
:1078c80001016000c114210091417800e0c161000c
:1078d80002c1710082487800c800de00d01421007f
:1078e80010417800604161008140710001487800d2
:1078f800401421001080fb00511421009180fb00ee
:10790800c808dd000100700080007800c014210064
:107918001080fb00d21421001281fb004811dd0009
:10792800020070004500dd0000805000f10f2000cb
:1079380001016000a114210091417800e0c16100bb
:1079480002c1710082487800c800de00b01421002e
:107958001041780060416100814071000148780061
:10796800c01421001080fb00d11421009180fb007d
:10797800c808dd00010070008000400020422a0095
:10798800008040001000780010808800c01421009a
:107998001080fb00d11421009180fb00c808dd0095
:1079a800010070000000e8008000400020422a002a
:1079b8000080400090007800108080000080500017
:1079c80020808800a01421001080fb00b114210041
:1079d8009180fb00c808dd0001007000800078007d
:1079e800208080008088b9004580de0020808800e3
:1079f8001180800020808000008040001080880076
:107a0800a1013700801421001080fb00911421008f
:107a18009180fb00c808dd0001007000800078003c
:107a2800401421001080fb00521421001281fb0039
:107a38004811dd0002007000808f50001c003400e7
:107a4800801421001080fb00911421009180fb001c
:107a5800c808dd0001007000800078004014210093
:107a68001080fb00521421001281fb004811dd0038
:107a78000200700000805000f10f2000010160003a
:107a8800a114210091417800e0c1610002c1710098
:107a980082487800c800de00b01421001041780048
:107aa8006041610081407100014878001b00370087
:107ab800401421001080fb00511421009180fb002c
:107ac800c808dd00010070008000780080142100e3
:107ad8001080fb00921421001281fb004811dd0088
:107ae8000200700000805000f10f200001016000ca
:107af800a114210091417800e0c1610002c1710028
:107b080082487800c800de00b014210010417800d7
:107b1800604161008140710001487800a014210093
:107b28001080fb00b11421009180fb00c808dd0023
:107b380001007000ec0f50002800340040142100b0
:107b48001080fb00511421009180fb00c808dd0063
:107b5800010070004580de00f10f20000101600087
:107b6800c114210091417800e0c1610002c1710097
:107b780082487800c800de00d01421001041780047
:107b88006041610081407100014878004014210083
:107b98001080fb00511421009180fb00c808dd0013
:107ba80001007000f10f2000010160008114210024
:107bb80091417800e0c1610002c1710082487800fb
:107bc800c800de0090142100104178006041610077
:107bd80081407100014878001400370080142100aa
:107be8001080fb00911421009180fb00c808dd0083
:107bf800010070004580de00f10f200001016000e7
:107c0800c114210091417800e0c1610002c17100f6
:107c180082487800c800de00d014210010417800a6
:107c2800604161008140710001487800c014210062
:107c38001080fb00d11421009180fb00c808dd00f2
:107c4800010070008000400020422a0000804000af
:107c580010007800108088000b0137008014210084
:107c68001080fb00911421009180fb00c808dd0002
:107c78000100700080007800401421001080fb0093
:107c8800521421001281fb004811dd00020070002f
:107c9800808f50001c003400801421001080fb00ed
:107ca800911421009180fb00c808dd0001007000dc
:107cb80080007800401421001080fb00521421003d
:107cc8001281fb004811dd000200700000805000a6
:107cd800f10f200001016000a114210091417800fa
:107ce800e0c1610002c1710082487800c800de006e
:107cf800b01421001041780060416100814071009a
:107d0800014878001b003700401421001080fb0058
:107d1800511421009180fb00c808dd0001007000ab
:107d280080007800801421001080fb00921421004c
:107d38001281fb004811dd00020070000080500035
:107d4800f10f200001016000a11421009141780089
:107d5800e0c1610002c1710082487800c800de00fd
:107d6800b014210010417800604161008140710029
:107d780001487800a01421001080fb00b1142100f4
:107d88009180fb00c808dd0001007000ec0f500076
:107d980042003400401421001080fb0051142100df
:107da8009180fb00c808dd000100700080007800a9
:107db8005005200000017800110009008200d80059
:107dc800f10f200001016000c114210091417800e9
:107dd800e0c1610002c1710082487800c800de007d
:107de800d014210010417800604161008140710089
:107df8000148780090122100104078008000fb00b4
:107e0800c01421001080fb00d21421001281fb0055
:107e18004811dd000200700000804000f10f2000d2
:107e280001016000c114210091417800e0c16100a6
:107e380002c1710082487800c800de00d014210019
:107e4800104178006041610081407100014878006c
:107e5800401421001080fb00511421009180fb0088
:107e6800c808dd0001007000f10f2000010160006a
:107e78008114210091417800e0c1610002c17100c4
:107e880082487800c800de00901421001041780074
:107e9800604161008140710001487800e0152100cf
:107ea80011c0b30001487800c01421001080fb0005
:107eb800d11421009180fb00c808dd00010070008a
:107ec8008000400020422a00008040001000780016
:107ed800108088006c003700401421001080fb00df
:107ee800511421009180fb00c808dd0001007000da
:107ef800800078005005200000017800110009007a
:107f08008200d800f10f200001016000c114210097
:107f180091417800e0c1610002c171008248780097
:107f2800c800de00d01421001041780060416100d3
:107f38008140710001487800401421001080fb0046
:107f4800511421009180fb00c808dd000100700079
:107f580080007800c01421001080fb00d21421009a
:107f68001281fb004811dd0002007000000178005a
:107f7800b0fa2f008090b90000804000f10f200077
:107f880001016000a114210091417800e0c1610065
:107f980002c1710082487800c800de00b0142100d8
:107fa800104178006041610081407100014878000b
:107fb800c01421001080fb00d11421009180fb0027
:107fc800c808dd00010070008000780090122100d0
:107fd800104078000000fb00008040008000400056
:107fe80020422a000080400010007800108088009d
:107ff800c01421001080fb00d11421009180fb00e7
:10800800c808dd00010070008000e800901221001f
:10801800104078000000fb00008040008000400015
:1080280020422a00008040009000780010808000e4
:108038000080500020808800a01421001080fb00e0
:10804800b11421009180fb00c808dd000100700018
:1080580080007800208080008088b9008000780047
:108068005005200000017800110009008200d800a6
:1080780020808800118080002080800000804000df
:1080880010808800000000000080fa000000060050
:108098001600fa000040eb00004f7800c6d0bf0081
:1080a8008080fb00308880000000e000060032007d
:1080b800308880001041780000c8b300004061009b
:1080c8000004e00002003a00100020000100370020
:1080d8000000eb00008060000000e0000a003200b1
:1080e800c7d0bf0080417800a264270011c0b30048
:1080f80010c0b3000906070030888800c670ef007a
:10810800c770ef00e3033700408880000000e000fc
:1081180006003200408880009040780000c8b30014
:1081280000c060000004e000da033a0040888000e4
:10813800a04090008180fb00304090000080fb0050
:10814800630060004800dd00008070000040780097
:10815800c8f0b700c670ef00c40337001e80fb00ec
:10816800a15c270000804000104078000080fb00e0
:10817800e90f50000e023200e90f500005003c00e4
:10818800e40f50007b023200e80f5000500232002a
:10819800b3033700eb0f500003003200ee0f50001e
:1081a80000023200ae0337001e80fb000080e800aa
:1081b800a15c270000804000104078000080fb0090
:1081c8006101b900c0fe2f00f1ff2f00020040003e
:1081d80083804800e201200003002000820f500045
:1081e800838f5800ec013e00000601001e00370096
:1081f800260037002e003700360037003e003700d3
:10820800460037004e003700560037007d00370023
:10821800a7003700ba003700cd003700d500370077
:10822800dd003700e50037000c0137001401370086
:108238001b013700220137002901370030013700c0
:10824800370137003e013700450137004c01370040
:108258005401370062013700700137007e01370092
:10826800af013700c30137001e80fb0063004000e8
:10827800a15c27000080400010407800e1406000c9
:108288008012210001487800c30137001e80fb00de
:1082980063004000a15c2700008040001040780087
:1082a800804078007012210001487800ba01370038
:1082b8001e80fb0063004000a15c27000080400096
:1082c8001040780080407800901221000148780022
:1082d800b10137001e80fb0063004000a15c27004d
:1082e800008040001040780080407800d0122100c3
:1082f80001487800a80137001e80fb006300400099
:10830800a15c270000804000104078008040780081
:1083180060122100014878009f0137001e80fb0091
:1083280063004000a15c27000080400010407800f6
:1083380080407800a012210001487800960137009b
:108348001e80fb0063004000a15c27000080400005
:108358001040780080407800b01221000148780071
:108368008d0137001e80fb0063004000a15c2700e0
:1083780000804000104078000080fb00f10f2000d2
:10838800010160003113210091417800e0c16100d2
:1083980002c1710082487800c800de004013210045
:1083a8001041780060416100814071000148780007
:1083b800301321001080fb00411321009180fb0045
:1083c800c808dd00010070004300dd00f10f200047
:1083d800010160003113210091417800e0c1610082
:1083e80002c1710082487800c800de0040132100f5
:1083f80010417800604161008140710001487800b7
:10840800650137001e80fb0063004000a15c270067
:1084180000804000104078000080fb00f10f200031
:1084280001016000a113210091417800e0c16100c1
:1084380002c1710082487800c800de00b013210034
:108448001041780060416100814071000148780066
:10845800a01321001080fb00b11321009180fb00c4
:10846800c808dd00010070008000400020d22a000a
:108478000080400010007800f10f2000010160002a
:10848800a113210091417800e0c1610002c171008f
:1084980082487800c800de00b0132100104178003f
:1084a8006041610081407100014878003a0137005d
:1084b8001e80fb0063004000a15c27000080400094
:1084c800104078000080fb00f10f200001016000df
:1084d800c113210091417800e0c1610002c171001f
:1084e80082487800c800de00d013210010417800cf
:1084f8006041610081407100014878002601370021
:108508001e80fb0063004000a15c27000080400043
:10851800104078000080fb00f10f2000010160008e
:108528005113210091417800e0c1610002c171003e
:1085380082487800c800de006013210010417800ee
:1085480060416100814071000148780012013700e4
:108558001e80fb0063004000a15c270000804000f3
:108568001040780080407800e0122100014878002f
:10857800090137001e80fb0063004000a15c270052
:10858800008040001040780080407800f012210000
:1085980001487800000137001e80fb00630040009e
:1085a800a15c2700008040001040780080407800df
:1085b8000013210001487800f70037001e80fb00f7
:1085c80063004000a15c2700008040001040780054
:1085d8000080fb00f10f2000010160001113210051
:1085e80091417800e0c1610002c1710082487800c1
:1085f800c800de00201321001041780060416100ae
:108608008140710001487800101321001080fb00a0
:10861800211321009180fb00c808dd0001007000d3
:108628004600dd00f10f2000010160001113210058
:1086380091417800e0c1610002c171008248780070
:10864800c800de002013210010417800604161005d
:108658008140710001487800cf0037001e80fb0080
:1086680063004000a15c27000080400010407800b3
:1086780080407800c012210001487800c600370009
:108688001e80fb0063004000a15c270000804000c2
:10869800104078000080fb0080888800be0037000a
:1086a8001e80fb0063004000a15c270000804000a2
:1086b800104078000080fb0090888800b6003700e2
:1086c8001e80fb0063004000a15c27000080400082
:1086d800104078000080fb00a0888800ae003700ba
:1086e8001e80fb0063004000a15c27000080400062
:1086f800104078000080fb0050808800a6003700fa
:108708001e80fb0063004000a15c27000080400041
:10871800104078000080fb00608088009e003700d1
:108728001e80fb0063004000a15c27000080400021
:10873800104078000080fb007080880096003700a9
:108748001e80fb0063004000a15c27000080400001
:10875800104078000080fb00808088008e00370081
:108768001e80fb0063004000a15c270000804000e1
:10877800104078000080fb00908088008600370059
:108788001e80fb0063004000a15c270000804000c1
:108798001040780080407800e013210001487800fc
:1087a8007d0037001e80fb0063004000a15c2700ad
:1087b8000080400010407800aaf0b700aad0bf009f
:1087c80000404000aaf0b700aad0bf000080fb001c
:1087d800f10f200000805000706488006e003700a0
:1087e8001e80fb0063004000a15c27000080400061
:1087f80010407800abf0b700abd0bf00004040009d
:10880800abf0b700abd0bf000080fb00f10f200039
:1088180000805000306388005f0037001e80fb0036
:1088280063004000a15c27000080400010407800f1
:10883800acf0b700acd0bf0000404000acf0b700cf
:10884800acd0bf000080fb00f10f2000008050007a
:1088580030648800500037001e80fb006300400031
:10886800a15c270000804000104078000080fb00d9
:10887800f10f2000010160001114210091417800de
:10888800e0c1610002c1710082487800c800de00c2
:10889800201421001041780060416100814071007e
:1088a80001487800101421001080fb0021142100d9
:1088b8009180fb00c808dd000100700080004000c6
:1088c800a07527000080400010007800f10f2000fc
:1088d800010160001114210091417800e0c161009c
:1088e80002c1710082487800c800de00201421000f
:1088f80010417800604161008140710001487800b2
:10890800101421001080fb00211421009180fb002d
:10891800c808dd0001007000700888001e003700dc
:108928001e80fb0063004000a15c2700008040001f
:10893800104078000080fb000000e800f10f2000e4
:1089480001016000f113210091417800e0c161004c
:1089580002c1710082487800c800de0000142100be
:108968001041780060416100814071000148780041
:10897800090037001e80fb0063004000a15c27004f
:108988000080400010407800e3406000301421006f
:1089980001487800000000009e40780064cf400045
:1089a800b20137009e40780064cf4000af01370025
:1089b8001e80fb000080e800a15c270000804000ca
:1089c800104078000080fb00f10f200001016000da
:1089d800c114210091417800e0c1610002c1710019
:1089e80082487800c800de00d014210010417800c9
:1089f800604161008140710001487800c014210085
:108a08001080fb00d11421009180fb00c808dd0014
:108a1800010070008000400020422a0000804000d1
:108a280010007800108088001e80fb006300400062
:108a3800a15c270000804000104078000080fb0007
:108a4800f10f20000101600001152100914178001b
:108a5800e0c1610002c1710082487800c800de00f0
:108a680010152100104178006041610081407100bb
:108a780001487800001521001080fb001115210025
:108a88009180fb00c808dd00010070004300dd0094
:108a9800f10f2000010160000115210091417800cb
:108aa800e0c1610002c1710082487800c800de00a0
:108ab800101521001041780060416100814071006b
:108ac800014878009e40780064cf40006701370075
:108ad8001e80fb000080e800a15c270000804000a9
:108ae800104078000080fb00f10f200001016000b9
:108af800c114210091417800e0c1610002c17100f8
:108b080082487800c800de00d014210010417800a7
:108b1800604161008140710001487800c014210063
:108b28001080fb00d11421009180fb00c808dd00f3
:108b3800010070008000400020422a0000804000b0
:108b480010007800108088000015210090407800ff
:108b5800e0c06000014878001015210090407800be
:108b6800e0c06000014878009e40780064cf400073
:108b78003e013700c05c27009040780000c4b30075
:108b880000c068000080fb000000e9004f00de0024
:108b980000407800d15c2700914078008180fb007c
:108ba8008100e900cf08de008140780001406000c4
:108bb8000004e0002400320040c0b300004f7800f9
:108bc800ca30ef00180037001e80fb006300600009
:108bd8000000e000130032001e80fb00a15c2700ab
:108be8000080400010407800e94f400003003a0040
:108bf80000c4b300004f78000a0037005086800098
:108c08009e80fb00a25c2700810041001141780092
:108c1800a15a250080804000824878000000e800c2
:108c2800508688001e4fe800c8d0bf009e407800dc
:108c380080cf5000e4ff39008000eb00a05a2500e7
:108c48008d14070009013700c05c270090407800a8
:108c580000c4b30080c068000180fb000000e90088
:108c68004f00de0080407800d05c2700104078007c
:108c78000004a2000080fb000000e9004f00de00b5
:108c88000040780000c060000004e0002f003200bf
:108c9800f05c270010407800ef40600000162100cb
:108ca8000148780060c0b300004f7800ca30ef0078
:108cb800180037001e80fb00630060000000e00021
:108cc800130032001e80fb00a15c270000804000da
:108cd80010407800e94f400003003a0000c4b30098
:108ce800004f78000a003700508680009e80fb0005
:108cf800a25c27008100410011417800a15a25009b
:108d080080804000824878000000e8005086880093
:108d18001e4fe800c8d0bf009e40780080cf5000aa
:108d2800e4ff390000162100104078000080fb00a5
:108d38000000e800a15a2500c41607008000eb00d7
:108d4800a05a25004c140700c8003700c05c270053
:108d58009040780000c4b30080c068000180fb0028
:108d68000000e9004f00de0080407800d05c27005a
:108d7800104078000014a2000080fb000000e90009
:108d88004f00de000040780000c060000004e000f2
:108d980015003200f05c270010407800ef406000ba
:108da80000162100014878000016210010407800c4
:108db8000080fb000000e800a15a25006d1707009d
:108dc8008000eb00a05a25002b14070022c0b30036
:108dd80001c2b300a05a2500b000070000c4b300c8
:108de800004f7800a1003700c05c27009040780051
:108df80000c4b30080c068000180fb000000e900e7
:108e08004f00de0080407800d05c270010407800da
:108e180030c0b2000080fb000000e9004f00de0017
:108e28000040780000c060000004e0002f0032001d
:108e3800f05c270010407800ef4060000016210029
:108e48000148780000162100104078000080fb00df
:108e5800200798002e0090004500dd0020079800ac
:108e68000000eb00100798000d003700ae009000de
:108e78001e0090000080400021f22a00008040007f
:108e880090407800a25a25001e0090000000410082
:108e9800014878001e0090000000e80010079800c4
:108ea8001e009000ff0f5000f0ff36000016210052
:108eb800104078000080fb000000e800a15a25005f
:108ec800621607008000eb00a05a2500ea1307008d
:108ed80022c0b30001c2b300a05a25006f000700ea
:108ee80000c4b300004f780060003700c05c270062
:108ef8009040780000c4b30080c068000180fb0087
:108f08000000e9004f00de0080407800d05c2700b8
:108f1800104078000024a2000080fb000000e90057
:108f28004f00de000040780000c060000004e00050
:108f380026003200f05c270010407800ef40600007
:108f4800205625000148780020562500104078005a
:108f5800804078007013210001487800005d2700e8
:108f680010407800804078000174a1003056250038
:108f7800014878003056250010407800804078007d
:108f88008013210001487800105d27001040780008
:108f9800804078000174a1004056250001487800ff
:108fa800405625001040780080407800901321003a
:108fb80001487800215625000000eb0088160700bc
:108fc80000c4b300004f780028003700c05c2700b9
:108fd8009040780000c4b30080c068000180fb00a6
:108fe8000000e9004f00de0080407800d05c2700d8
:108ff8001040780050c0b2000080fb000000e9007b
:109008004f00de000040780000c060000004e0006f
:10901800100032007013210010407800604798005b
:1090280080132100104078007047980090132100a9
:1090380010407800004f98006600470052c0b30007
:1090480031c0b3001500070000c4b300004f78001a
:109058000600370000c4b300004f78000300370053
:109068009e40780064cf400000000000c8d0bf00d8
:109078009e40780080cf500038fc390003c4b3000c
:10908800a25c27008040eb0010c0b3002302070059
:10909800408888000080fa00000006000600fa00f8
:1090a8001007980041479800524798000040eb008d
:1090b800004f780010c0b300104798000cd1bf00d3
:1090c8008080fb00a26c27008100410042c0b300f1
:1090d800824878000040e8000cf1b7000cd1bf00ce
:1090e8008080fb00a26c27008100410002cfb30002
:1090f800824878000040e8000cf1b7000cd1bf00ae
:109108008080fb00a26c2700810041005e41900036
:10911800824878000040e8000cf1b7009e00370054
:109128000cd1bf000080fb00630060000000e0007d
:109138008c003a004e4090008080fb001e80fb00af
:1091480000805000e10f500027003200e20f50006d
:109158004d0032000000e00079003a000cd1bf0059
:109168008080fb00a26c27008100410052c0b30040
:10917800824878000040e8000cf1b7000cd1bf002d
:109188008080fb00a26c27008100410072cfb300f1
:10919800824878000040e8000cf1b7000cd1bf000d
:1091a8008080fb00a26c2700810041000041eb0099
:1091b800824878000040e8000cf1b7000cd1bf00ed
:1091c8008080fb00a26c2700810041000041eb0079
:1091d800824878000040e8000cf1b7000040eb003e
:1091e800104798006c0037000cd1bf008080fb004e
:1091f800a26c27008100410062c0b3008248780059
:109208000040e8000cf1b7000cd1bf008080fb00e3
:109218001e81fb009e0190000281410012417800ee
:109228000274a100a36c2700818041008248780065
:109238000040e8000cf1b7001e4fe8000cd1bf0059
:109248008080fb00a26c27008100410072cfb30030
:10925800824878000040e8000cf1b7000cd1bf004c
:109268008080fb00a26c2700810041000041eb00d8
:10927800824878000040e8000cf1b7000040eb009d
:1092880010479800440037000cd1bf008080fb00d5
:10929800a26c27008100410072c0b30082487800a8
:1092a8000040e8000cf1b7000cd1bf008080fb0043
:1092b8001e81fb009e01900002814100124178004e
:1092c8000274a100a36c27008180410082487800c5
:1092d8000040e8000cf1b7001e4fe8000cd1bf00b9
:1092e8008080fb001e81fb009e01900002814100ee
:1092f800124178000274a100a36c2700818041000c
:10930800824878000040e8000cf1b7001e4fe800e2
:109318000cd1bf008080fb00a26c270081004100b7
:1093280072cfb300824878000040e8000cf1b70023
:109338000040eb00104798000000000016003700be
:109348000cd1bf008080fb00a26c27008100410087
:1093580042c0b300824878000040e8000cf1b70032
:109368000d0037000cd1bf008080fb001e81fb0080
:109378009e01900002814100124178000274a10010
:10938800a36c270081804100824878000040e800f3
:109398000cf1b7001e4fe8001e4090000004e000ea
:1093a8005fff3a000080fa00000006000200fa00a1
:1093b8002ac8a900f00f200020268800f00f2000fe
:1093c80000268800e024ef00820020008000eb00e7
:1093d800204e200092ec0700dc24ef00f00920006a
:1093e80030268800f0092000102688009004a80084
:1093f800008027004800de00702688000040eb004f
:10940800004f7800090037001e80fb00c300dd0014
:1094180000802700008240006000b8006011b8009a
:10942800009abe000292be001e4fe8001e4078005f
:10943800f34f5000f4ff3600ca24a800cc24ef00f4
:10944800caa4a900ca24a90010003700800020007f
:1094580000268800407327008040eb000148780010
:10946800a07327008040eb0001487800b073270004
:1094780090407800e0c0600001487800c073270081
:1094880090407800e0c06000014878000026800025
:10949800680060000000e000ecff3a0010002000c7
:1094a800d087880010002000e0878800fe30ef0099
:1094b8000031ef00f030ef000040eb00004f780083
:1094c800170037001e80fb008000400080722700d4
:1094d800008040008000eb00010878001e80fb003f
:1094e80080004000e0712700008040008000eb0011
:1094f800010878001e80fb00f173270000804000ff
:109508008040eb00014878001e80fb004174270072
:10951800008040008040eb00014878001e4fe800c2
:109528001e407800e44f5000e6ff36000081270017
:1095380040b98b00d00020000027880090742700d5
:1095480020c08b0011c0830000c02f000080600085
:109558000030a00010c08b004008200000c08b0025
:10956800e470ef00e230ef000080fa00000006002f
:109578000200fa00108780000000e0000f003a00a7
:10958800ca24ef00c224ef00dc24ef00f009200019
:1095980030268800f00920001026880001003700d6
:1095a800ca04a80050268000610060000000e000a6
:1095b800fbff320010002000108788001087800011
:1095c800e10f500007003a00f00f20000026880045
:1095d800c224ef00c204a800c284a8002000200012
:1095e8001087880040248000700060000000e000c0
:1095f8000700320050248000700060000000e00086
:109608000300320000012000402488003f060700c4
:1096180080248000620060000000e0000200320048
:109628000ac8a9009e00370000268000610060007b
:109638000000e00009003200102680006100600090
:109648000000e0000500320058ff0700400020003d
:10965800108788001000200000268800002680005f
:10966800700060000000e000070032001026800053
:10967800700060000000e0000300320017060700d9
:109688000001200000268800002680006400600099
:109698000000e00014003200102680006400600022
:1096a8000000e00004003200120020008000eb00ff
:1096b80030072000ed160700400020000026880033
:1096c800f6d0bf000004e00003003200f6d0bf006f
:1096d8000040e900f6f0b700f6d0bf000004e00053
:1096e80001003a00850207000126800000082000da
:1096f800008060000000e0000600320011268000b3
:1097080000082000008060000000e0000100320036
:10971800cb05070000268000620060000000e00022
:109728000c00320010268000620060000000e0009b
:1097380008003200120020008000eb00f0ff270034
:10974800ca160700f00f20002026880020002000fd
:109758000026880010878000e30f500002003e00ba
:109768000ac8a9004e003700102680006800600073
:109778000000e000490032000040eb00004f780094
:109788004100370000268000680060000000e0000b
:10979800410032004026800000407800f2f0b70017
:1097a800f2d0bf000080fb004400de0000407800db
:1097b800f3f0b7008000200000268800f2d0bf0038
:1097c800684060000004e00013003a00f3d0bf00d6
:1097d8000081fb00f3d0bf008080fb0040742700ad
:1097e800008040009040780061c060000004a20042
:1097f800e14060004074270000004100e1c06000c3
:1098080090417800e2cfb30002c16100814071004d
:109818000148780012003700f3d0bf000081fb0038
:10982800f3d0bf008080fb00f07327000080400069
:109838009040780061c060000004a200e140600030
:10984800f073270000004100e1c0600090417800fb
:10985800e2cfb30002c16100814071000148780085
:10986800f3d0bf000004e00002003a00b205070090
:10987800040037000001eb00210f21002007200021
